:10000600456D657267656E6379210053656E642080
:100016005369676E616C202E2E2E2E005472616617
:10002600666963204C696768742E0043656E746563
:0A0036007220436F6E74726F6C004D
:1001200053890F438920758DFD758BFDD28E75988F
:090130005053877FC2ACD2AF220C
:0801B6008F993099FDC29922D6
:100072007BFF7A0079067F831200407BFF7A00794A
:10008200117FC01200407F647E001201847F011242
:0900920001397F647E0002018443
:10009B007BFF7A0079227F811200407BFF7A007907
:1000AB00317FC11200407F647E001201847F0112F8
:0900BB0001397F647E000201841A
:1000E50012010512012043B801D288D2A8D2AFC2AD
:1000F50093C20030000512007280F812009B80F355
:030003000200C434
:1000C400C0D075D000C007B2003000097F451201CE
:1000D400B6D29380077F4E1201B6C293D007D0D018
:0100E40032E9
:10018400EF1FAC0670011E4C600A7D027CC7DCFECA
:04019400DDFC80EC22
:010198002244
:10019900C292C290D291D292AFA0EF20E7F2C2925E
:0101A9002233
:10013900AE07120199C292C290C2918EA0D29200CA
:09014900C2927F017E00020184D4
:10015200AE07120199C292D290C2918EA0D29200A1
:09016200C2927F017E00020184BB
:100105007F381201397F0C1201397F061201397FC0
:0B011500011201397F017E000201840D
:100040008B088A09890A120139AB08AA09A90A1280
:10005000016BD39400401A050AE50A7002050914E1
:10006000F912016BFF1201527F647E00120184803D
:02007000D82294
:030000000201AA50
:0C01AA00787FE4F6D8FD7581200200E5A6
:10016B00BB010689828A83E0225002E722BBFE0292
:09017B00E32289828A83E49322C5
:00000001FF
