:10043E00C0F9A4B0999282F8809028481848828416
:04044E00818488CC51
:0E045200010E05010F05010A02010C02C10195
:0B013F00E493F590AF0BEF3395E0FE6A
:04014A008E108F1173
:10014E007C007D0A1203188E128F13AE10AF117C35
:10015E00007D0A120318743E2DF58274043CF5835B
:10016E00E493F580D2A37F017E0012000EC2A37429
:10017E003E2513F58274043512F583E493F580D28F
:10018E00A27F017E0012000EC2A2AE10AF117C0043
:10019E007D0A1203188E128F13AE10AF117C007DE4
:1001AE000A120318743E2DF58274043CF583E49311
:1001BE00F580D2A17F017E0012000EC2A1743E25F1
:1001CE0013F58274043512F583E493F580D2A07F83
:0801DE00017E0012000EC2A018
:0101E60022F6
:0801E7008E108F11AB05AA0474
:1001EF007C007D0AAF03AE021203188E128F13AE7E
:1001FF0002AF037C007D0A120318743E2DF5827442
:10020F00043CF583E493F580D2A37F017E001200B6
:10021F000EC2A3743E2513F58274043512F583E4E0
:10022F0093F580D2A27F017E0012000EC2A2AE1003
:10023F00AF117C007D0A1203188E128F13AE10AF10
:10024F00117C007D0A120318743E2DF58274043C54
:10025F00F583E493F580D2A17F017E0012000EC2D8
:10026F00A1743E2513F58274043512F583E493F5DA
:0C027F0080D2A07F017E0012000EC2A001
:01028B002250
:10040D00758901758C3C758AB0D2A943B801D28823
:10041D00D2A8D2AFD28C850A09850C0BC200C202BC
:10042D00759850438920758DFD758BFDD28ED2AC9C
:01043D00229C
:1000260012040DC2A4C3E50B648094805009C3E595
:100036000964809480400CC203C2049004501201EB
:100046003F80E230000890045112013F80F53000F5
:10005600030200D830027BE4F590C203C204D2A6A4
:10006600D2A7850E09850F0B30A52D20A6127F0A73
:10007600FE12000E30A6FD7F0A7E0012000E050F4E
:1000860020A7417F0A7E0012000E30A7FD7F0A7E60
:100096000012000E150F802C20A6137F0A7E001278
:1000A600000E30A6FD7F0A7E0012000E050E20A768
:1000B600137F0A7E0012000E30A7FD7F0A7E001213
:1000C600000E150EAF0F7E00AD0E7C001201E7028A
:1000D6000049850F0B850E09C3E50B6480948440A7
:1000E6000AC20390044812013F80EDE4F590C3E58F
:1000F6000B648094804009D204D29312014380EEAF
:10010600850F0B850E09C3E509648094844010C2EF
:100116000490044CE493F590AF0912014580E7E49E
:10012600F590C3E509648094805003020049D20328
:09013600D297AF0912014580E9DE
:0300030002046193
:0B046100B202300203D2A432C2A43267
:03000B000203A34A
:0403A300C0E0C0D026
:1003A700758C3C758AB00508E508B40A0A30040262
:1003B700B296300302B292E508B414111509150B71
:0D03C700300402B296300302B292750800B5
:0503D400D0D0D0E032A2
:030023000203D9FC
:1003D900C0E0C083C082C0D0309820C29885990DF2
:1003E900E50DB4450DD200900451E493F590C28C0B
:1003F9008009E50DB44E04C200D28CD0D0D082D091
:0404090083D0E0328A
:10000E00EF1FAC0670011E4C600A7D027CC7DCFE41
:04001E00DDFC80EC99
:0100220022BB
:0300000002028C6D
:0C028C00787FE4F6D8FD7581200202D3D3
:10031800C2D5EC30E709B2D5E4C39DFDE49CFCEE00
:1003280030E715B2D5E4C39FFFE49EFE12034EC327
:10033800E49DFDE49CFC800312034E30D507C3E422
:060348009FFFE49EFE226F
:10029800020026E493A3F8E493A34003F68001F256
:1002A80008DFF48029E493A3F85407240CC8C33367
:1002B800C4540F4420C8834004F456800146F6DF36
:1002C800E4800B0102040810204080900452E47E70
:1002D800019360BCA3FF543F30E509541FFEE4932B
:1002E800A360010ECF54C025E060A840B8E493A3F2
:1002F800FAE493A3F8E493A3C8C582C8CAC583CA1D
:10030800F0A3C8C582C8CAC583CADFE9DEE780BED4
:01046000009B
:10034E00BC000BBE0029EF8DF084FFADF022E4CC93
:10035E00F875F008EF2FFFEE33FEEC33FCEE9DEC5C
:10036E00984005FCEE9DFE0FD5F0E9E4CEFD22EDA2
:10037E00F8F5F0EE8420D21CFEADF075F008EF2FEC
:10038E00FFED33FD4007985006D5F0F222C398FDDD
:05039E000FD5F0EA227A
:00000001FF
